{
  "_format": "hh-sol-artifact-1",
  "contractName": "chai",
  "sourceName": "contracts/chai.sol",
  "abi": [
    {
      "inputs": [],
      "stateMutability": "nonpayable",
      "type": "constructor"
    },
    {
      "inputs": [
        {
          "internalType": "string",
          "name": "name",
          "type": "string"
        },
        {
          "internalType": "string",
          "name": "message",
          "type": "string"
        }
      ],
      "name": "buyChai",
      "outputs": [],
      "stateMutability": "payable",
      "type": "function"
    },
    {
      "inputs": [],
      "name": "getMemos",
      "outputs": [
        {
          "components": [
            {
              "internalType": "string",
              "name": "name",
              "type": "string"
            },
            {
              "internalType": "string",
              "name": "message",
              "type": "string"
            },
            {
              "internalType": "uint256",
              "name": "timestamp",
              "type": "uint256"
            },
            {
              "internalType": "address",
              "name": "from",
              "type": "address"
            }
          ],
          "internalType": "struct chai.Memo[]",
          "name": "",
          "type": "tuple[]"
        }
      ],
      "stateMutability": "view",
      "type": "function"
    },
    {
      "inputs": [
        {
          "internalType": "uint256",
          "name": "",
          "type": "uint256"
        }
      ],
      "name": "memos",
      "outputs": [
        {
          "internalType": "string",
          "name": "name",
          "type": "string"
        },
        {
          "internalType": "string",
          "name": "message",
          "type": "string"
        },
        {
          "internalType": "uint256",
          "name": "timestamp",
          "type": "uint256"
        },
        {
          "internalType": "address",
          "name": "from",
          "type": "address"
        }
      ],
      "stateMutability": "view",
      "type": "function"
    }
  ],
  "bytecode": "0x608060405234801561001057600080fd5b5033600160006101000a81548173ffffffffffffffffffffffffffffffffffffffff021916908373ffffffffffffffffffffffffffffffffffffffff160217905550610e19806100616000396000f3fe6080604052600436106100345760003560e01c80636a13d85914610039578063865c517214610055578063e8dfdf0414610080575b600080fd5b610053600480360381019061004e919061069d565b6100c0565b005b34801561006157600080fd5b5061006a6102db565b6040516100779190610934565b60405180910390f35b34801561008c57600080fd5b506100a760048036038101906100a29190610982565b6104be565b6040516100b79493929190610a17565b60405180910390f35b60003411610103576040517f08c379a00000000000000000000000000000000000000000000000000000000081526004016100fa90610ab6565b60405180910390fd5b600160009054906101000a900473ffffffffffffffffffffffffffffffffffffffff1673ffffffffffffffffffffffffffffffffffffffff166108fc349081150290604051600060405180830381858888f1935050505015801561016b573d6000803e3d6000fd5b506000604051806080016040528086868080601f016020809104026020016040519081016040528093929190818152602001838380828437600081840152601f19601f82011690508083019250505050505050815260200184848080601f016020809104026020016040519081016040528093929190818152602001838380828437600081840152601f19601f8201169050808301925050505050505081526020014281526020013373ffffffffffffffffffffffffffffffffffffffff168152509080600181540180825580915050600190039060005260206000209060040201600090919091909150600082015181600001908161026b9190610d11565b5060208201518160010190816102819190610d11565b506040820151816002015560608201518160030160006101000a81548173ffffffffffffffffffffffffffffffffffffffff021916908373ffffffffffffffffffffffffffffffffffffffff160217905550505050505050565b60606000805480602002602001604051908101604052809291908181526020016000905b828210156104b5578382906000526020600020906004020160405180608001604052908160008201805461033290610b34565b80601f016020809104026020016040519081016040528092919081815260200182805461035e90610b34565b80156103ab5780601f10610380576101008083540402835291602001916103ab565b820191906000526020600020905b81548152906001019060200180831161038e57829003601f168201915b505050505081526020016001820180546103c490610b34565b80601f01602080910402602001604051908101604052809291908181526020018280546103f090610b34565b801561043d5780601f106104125761010080835404028352916020019161043d565b820191906000526020600020905b81548152906001019060200180831161042057829003601f168201915b50505050508152602001600282015481526020016003820160009054906101000a900473ffffffffffffffffffffffffffffffffffffffff1673ffffffffffffffffffffffffffffffffffffffff1673ffffffffffffffffffffffffffffffffffffffff1681525050815260200190600101906102ff565b50505050905090565b600081815481106104ce57600080fd5b90600052602060002090600402016000915090508060000180546104f190610b34565b80601f016020809104026020016040519081016040528092919081815260200182805461051d90610b34565b801561056a5780601f1061053f5761010080835404028352916020019161056a565b820191906000526020600020905b81548152906001019060200180831161054d57829003601f168201915b50505050509080600101805461057f90610b34565b80601f01602080910402602001604051908101604052809291908181526020018280546105ab90610b34565b80156105f85780601f106105cd576101008083540402835291602001916105f8565b820191906000526020600020905b8154815290600101906020018083116105db57829003601f168201915b5050505050908060020154908060030160009054906101000a900473ffffffffffffffffffffffffffffffffffffffff16905084565b600080fd5b600080fd5b600080fd5b600080fd5b600080fd5b60008083601f84011261065d5761065c610638565b5b8235905067ffffffffffffffff81111561067a5761067961063d565b5b60208301915083600182028301111561069657610695610642565b5b9250929050565b600080600080604085870312156106b7576106b661062e565b5b600085013567ffffffffffffffff8111156106d5576106d4610633565b5b6106e187828801610647565b9450945050602085013567ffffffffffffffff81111561070457610703610633565b5b61071087828801610647565b925092505092959194509250565b600081519050919050565b600082825260208201905092915050565b6000819050602082019050919050565b600081519050919050565b600082825260208201905092915050565b60005b83811015610784578082015181840152602081019050610769565b60008484015250505050565b6000601f19601f8301169050919050565b60006107ac8261074a565b6107b68185610755565b93506107c6818560208601610766565b6107cf81610790565b840191505092915050565b6000819050919050565b6107ed816107da565b82525050565b600073ffffffffffffffffffffffffffffffffffffffff82169050919050565b600061081e826107f3565b9050919050565b61082e81610813565b82525050565b6000608083016000830151848203600086015261085182826107a1565b9150506020830151848203602086015261086b82826107a1565b915050604083015161088060408601826107e4565b5060608301516108936060860182610825565b508091505092915050565b60006108aa8383610834565b905092915050565b6000602082019050919050565b60006108ca8261071e565b6108d48185610729565b9350836020820285016108e68561073a565b8060005b858110156109225784840389528151610903858261089e565b945061090e836108b2565b925060208a019950506001810190506108ea565b50829750879550505050505092915050565b6000602082019050818103600083015261094e81846108bf565b905092915050565b61095f816107da565b811461096a57600080fd5b50565b60008135905061097c81610956565b92915050565b6000602082840312156109985761099761062e565b5b60006109a68482850161096d565b91505092915050565b600082825260208201905092915050565b60006109cb8261074a565b6109d581856109af565b93506109e5818560208601610766565b6109ee81610790565b840191505092915050565b610a02816107da565b82525050565b610a1181610813565b82525050565b60006080820190508181036000830152610a3181876109c0565b90508181036020830152610a4581866109c0565b9050610a5460408301856109f9565b610a616060830184610a08565b95945050505050565b7f506c6561736520706179206d6f7265207468616e203020657468657200000000600082015250565b6000610aa0601c836109af565b9150610aab82610a6a565b602082019050919050565b60006020820190508181036000830152610acf81610a93565b9050919050565b7f4e487b7100000000000000000000000000000000000000000000000000000000600052604160045260246000fd5b7f4e487b7100000000000000000000000000000000000000000000000000000000600052602260045260246000fd5b60006002820490506001821680610b4c57607f821691505b602082108103610b5f57610b5e610b05565b5b50919050565b60008190508160005260206000209050919050565b60006020601f8301049050919050565b600082821b905092915050565b600060088302610bc77fffffffffffffffffffffffffffffffffffffffffffffffffffffffffffffffff82610b8a565b610bd18683610b8a565b95508019841693508086168417925050509392505050565b6000819050919050565b6000610c0e610c09610c04846107da565b610be9565b6107da565b9050919050565b6000819050919050565b610c2883610bf3565b610c3c610c3482610c15565b848454610b97565b825550505050565b600090565b610c51610c44565b610c5c818484610c1f565b505050565b5b81811015610c8057610c75600082610c49565b600181019050610c62565b5050565b601f821115610cc557610c9681610b65565b610c9f84610b7a565b81016020851015610cae578190505b610cc2610cba85610b7a565b830182610c61565b50505b505050565b600082821c905092915050565b6000610ce860001984600802610cca565b1980831691505092915050565b6000610d018383610cd7565b9150826002028217905092915050565b610d1a8261074a565b67ffffffffffffffff811115610d3357610d32610ad6565b5b610d3d8254610b34565b610d48828285610c84565b600060209050601f831160018114610d7b5760008415610d69578287015190505b610d738582610cf5565b865550610ddb565b601f198416610d8986610b65565b60005b82811015610db157848901518255600182019150602085019450602081019050610d8c565b86831015610dce5784890151610dca601f891682610cd7565b8355505b6001600288020188555050505b50505050505056fea26469706673582212200f36c7ad62cf3603c4f91cbfd2535200ff133971caa590d2e5275b36a9e224fd64736f6c63430008120033",
  "linkReferences": {},
  "deployedLinkReferences": {}
}